:100000000C942A000C943F000C943F000C943F0089
:100010000C943F000C943F000C943F000C943F0064
:100020000C943F000C943F000C943F000C943F0054
:100030000C943F000C943F000C943F000C943F0044
:100040000C943F000C943F000C943F000C943F0034
:100050000C943F0011241FBECFE5D8E0DEBFCDBF1A
:1000600010E0A0E6B0E0E0E8F0E302C005900D92F9
:10007000A637B107D9F70E947B0E0C943E180C945A
:100080000000EF92FF920F931F937B018C0120E001
:1000900030E040E05FE40E94410388238CF0C80117
:1000A000B70120E030E040E05FE40E94B9010E9427
:1000B000A1039B01AC01205030404040504806C095
:1000C000C801B7010E94A1039B01AC01B901CA019B
:1000D0001F910F91FF90EF900895A0E0B0E0E3E74B
:1000E000F0E00C940718DC012B01FA019C9192308E
:1000F00008F439C1EB018881823008F433C19430AF
:1001000069F4843009F02FC111969C91119789816F
:10011000981709F428C1AEE6B0E025C1843009F48F
:1001200021C18230A9F4923009F01DC19A01AD01BC
:1001300088E0EA010990AE01E90109929E0181502F
:10014000C1F7E201898111969C918923818308C1BD
:10015000923009F407C112962D903C901397EB0151
:100160008A819B811496AD90BD90CD90DC901797BD
:10017000EC80FD800E811F819101281B390BB90194
:1001800037FF04C066277727621B730B6032710547
:100190000CF061C0121613066CF537014801062EEB
:1001A00004C096948794779467940A94D2F721E0D8
:1001B00030E040E050E004C0220F331F441F551FC1
:1001C0006A95D2F721503040404050402E213F21C7
:1001D00040235123211531054105510521F021E02E
:1001E00030E040E050E079018A01E628F72808294C
:1001F00019293CC0232BD1F1260E371E35014601AB
:10020000062E04C096948794779467940A94D2F744
:1002100021E030E040E050E004C0220F331F441FD3
:10022000551F6A95D2F721503040404050402A2156
:100230003B214C215D21211531054105510521F05E
:1002400021E030E040E050E059016A01A628B728DB
:10025000C828D9280BC0821593052CF01C01AA24AC
:10026000BB24650103C0EE24FF24870111969C91F5
:10027000D20111968C91981709F445C0992339F051
:10028000A80197012A193B094C095D0906C0A6017E
:1002900095012E193F09400B510B57FD08C01182E3
:1002A0003382228224833583468357831DC081E0B5
:1002B00081833382228288279927DC01821B930B5A
:1002C000A40BB50B84839583A683B7830DC0220F3F
:1002D000331F441F551F24833583468357838281F0
:1002E000938101979383828324813581468157814D
:1002F000DA01C9010197A109B1098F5F9F4FAF4F83
:10030000BF4328F30BC0918333822282EA0CFB1C8B
:100310000C1D1D1DE482F5820683178383E0808314
:10032000248135814681578157FF1AC0C901AA2708
:1003300097FDA095BA2F81709070A070B0705695FF
:10034000479537952795822B932BA42BB52B848328
:100350009583A683B7838281938101969383828359
:10036000DF0101C0D201CD01CDB7DEB7E2E10C94CF
:100370002318A0E2B0E0EFEBF1E00C9413186983CE
:100380007A838B839C832D833E834F835887E9E058
:10039000EE2EF12CEC0EFD1ECE010196B7010E944F
:1003A000CA048E010F5E1F4FCE010596B8010E9450
:1003B000CA048A8991E089278A8BC701B801AE01F6
:1003C000475E5F4F0E946D000E94F503A096E6E035
:1003D0000C942F18A0E2B0E0E0EFF1E00C941318B9
:1003E00069837A838B839C832D833E834F835887D5
:1003F000F9E0EF2EF12CEC0EFD1ECE010196B701B7
:100400000E94CA048E010F5E1F4FCE010596B801EF
:100410000E94CA04C701B801AE01475E5F4F0E9447
:100420006D000E94F503A096E6E00C942F18A0E260
:10043000B0E0EDE1F2E00C94071869837A838B83D6
:100440009C832D833E834F835887CE010196BE0146
:10045000675F7F4F0E94CA04CE010596BE016F5EA2
:100460007F4F0E94CA049985923088F08989823032
:10047000C8F0943019F4823051F404C0843029F467
:10048000923081F48EE690E0C6C0923049F420E0CC
:100490009A858A89981321E02A87CE010996BBC0E4
:1004A000823049F420E09A858A89981321E02A8BCA
:1004B000CE014196B0C02D843E844F8458886D880B
:1004C0007E888F88988CEE24FF248701AA24BB2481
:1004D000650140E050E060E070E0E0E0F0E0C10184
:1004E00081709070892BE9F0E60CF71C081D191D2E
:1004F0009A01AB012A0D3B1D4C1D5D1D80E090E073
:10050000A0E0B0E0E614F7040805190520F481E046
:1005100090E0A0E0B0E0BA01A901480F591F6A1F9E
:100520007B1FAA0CBB1CCC1CDD1C97FE08C081E005
:1005300090E0A0E0B0E0A82AB92ACA2ADB2A3196C6
:10054000E032F10549F0660C771C881C991C569422
:10055000479437942794C3CFFA85EA892B893C893D
:100560008B859C85280F391F2E5F3F4F17C0CA010E
:1005700081709070892B61F016950795F794E79438
:1005800080E090E0A0E0B0E8E82AF92A0A2B1B2BD3
:1005900076956795579547952F5F3F4F77FDE7CF46
:1005A0000CC0440F551F661F771F17FD4160EE0CEE
:1005B000FF1C001F111F21503040403090E05907B0
:1005C00090E0690790E4790760F32B8F3C8FDB01A3
:1005D000CA018F779070A070B07080349105A1052A
:1005E000B10561F447FD0AC0E114F10401051105EC
:1005F00029F0405C5F4F6F4F7F4F40781A8EFE1797
:1006000011F081E08A8F4D8F5E8F6F8F78A383E02A
:10061000898FCE0149960E94F503A096E2E10C94E1
:100620002318A8E1B0E0E7E1F3E00C941318698324
:100630007A838B839C832D833E834F83588789E005
:10064000E82EF12CEC0EFD1ECE010196B7010E94A2
:10065000CA048E010F5E1F4FCE010596B8010E949D
:10066000CA048985823040F08989823028F0C70128
:10067000B8010E94420501C08FEF6896E6E00C9435
:100680002F18A8E1B0E0E7E4F3E00C9413186983B5
:100690007A838B839C832D833E834F83588789E0A5
:1006A000E82EF12CEC0EFD1ECE010196B7010E9442
:1006B000CA048E010F5E1F4FCE010596B8010E943D
:1006C000CA048985823040F08989823028F0C701C8
:1006D000B8010E94420501C08FEF6896E6E00C94D5
:1006E0002F18A8E1B0E0E7E7F3E00C941318698352
:1006F0007A838B839C832D833E834F83588789E045
:10070000E82EF12CEC0EFD1ECE010196B7010E94E1
:10071000CA048E010F5E1F4FCE010596B8010E94DC
:10072000CA048985823040F08989823028F0C70167
:10073000B8010E94420501C081E06896E6E00C9491
:100740002F18ACE0B0E0E7EAF3E00C9417186983E7
:100750007A838B839C83CE010196BE016B5F7F4FB2
:100760000E94CA048D81823061F1823050F1843060
:1007700021F48E81882351F12EC02F81388537FDD9
:1007800020C06E812F3131051CF06623F9F023C0A3
:100790008EE190E0821B930B29853A854B855C8521
:1007A00004C056954795379527958A95D2F76623C5
:1007B000B1F050954095309521953F4F4F4F5F4F89
:1007C0000EC020E030E040E050E009C02FEF3FEFE6
:1007D0004FEF5FE704C020E030E040E050E8B901AF
:1007E000CA012C96E2E00C943318DF92EF92FF924C
:1007F0000F931F93FC01E480F58006811781D1805F
:100800008081823048F480E090E0A0E1B0E0E82A06
:10081000F92A0A2B1B2BA5C0843009F49FC0823013
:1008200021F4EE24FF24870105C0E114F104010541
:10083000110519F4E0E0F0E096C0628173819FEF4A
:10084000623879070CF05BC022E83FEF261B370BBC
:100850002A3131052CF020E030E040E050E02AC0A1
:10086000B801A701022E04C0769567955795479564
:100870000A94D2F781E090E0A0E0B0E004C0880FD5
:10088000991FAA1FBB1F2A95D2F70197A109B10989
:100890008E219F21A023B1230097A105B10521F04E
:1008A00081E090E0A0E0B0E09A01AB01282B392B69
:1008B0004A2B5B2BDA01C9018F779070A070B07062
:1008C00080349105A105B10539F427FF09C0205CEA
:1008D0003F4F4F4F5F4F04C0215C3F4F4F4F5F4F23
:1008E000E0E0F0E02030A0E03A07A0E04A07A0E412
:1008F0005A0710F0E1E0F0E079018A0127C0603882
:10090000710564F5FB01E158FF4FD801C7018F77EE
:100910009070A070B07080349105A105B10539F4D4
:10092000E7FE0DC080E490E0A0E0B0E004C08FE3FB
:1009300090E0A0E0B0E0E80EF91E0A1F1B1F17FFB1
:1009400005C016950795F794E794319687E01695BC
:100950000795F794E7948A95D1F705C0EE24FF2414
:100960008701EFEFF0E06E2F679566276795902F70
:100970009F77D794DD24D7948E2F8695492F462BC9
:10098000582F5D29B701CA011F910F91FF90EF9079
:10099000DF900895FC01DB01408151812281622FAB
:1009A0006F7770E0221F2227221F9381892F880FE3
:1009B000822B282F30E0991F9927991F11969C931D
:1009C000119721153105A9F54115510561057105ED
:1009D00011F482E037C082E89FEF13969C938E93C8
:1009E00012979A01AB0167E0220F331F441F551F76
:1009F0006A95D1F783E08C930DC0220F331F441FFB
:100A0000551F12968D919C911397019713969C9365
:100A10008E931297203080E0380780E0480780E40A
:100A2000580758F314962D933D934D935C93179765
:100A300008952F3F310579F4411551056105710580
:100A400019F484E08C93089564FF03C081E08C93D3
:100A500012C01C9210C02F57304013963C932E9317
:100A6000129783E08C9387E0440F551F661F771F12
:100A70008A95D1F7706414964D935D936D937C9332
:100A8000179708951F93DC01FB019C91923008F4A5
:100A900047C08081823008F443C0943051F41196ED
:100AA0001C91843099F58181682F70E0611B710978
:100AB0003FC0843021F0923031F48230B9F181812D
:100AC000882389F12DC011961C9111978230F1F085
:100AD00081811817D9F412962D913C911397828138
:100AE00093818217930794F028173907BCF0149666
:100AF0008D919D910D90BC91A02D248135814681D1
:100B00005781281739074A075B0718F4112341F06A
:100B10000AC082179307A407B50740F4112319F000
:100B200061E070E005C06FEF7FEF02C060E070E051
:100B3000CB011F910895DF93CF93CDB7DEB72797F1
:100B40000FB6F894DEBF0FBECDBF89836A834B8397
:100B50008981843008F0EEC08A81883008F0EAC0CC
:100B60008B81882309F074C08981282F30E03F836E
:100B70002E838E819F818130910559F12E813F8195
:100B8000223031052CF48E819F81009769F0D2C00C
:100B90002E813F812230310589F18E819F81833002
:100BA000910509F440C0C6C0AAE3B0E0EAE3F0E072
:100BB0008081482F8A81282F30E081E090E0022E4A
:100BC00002C0880F991F0A94E2F7809584238C93C2
:100BD000B1C0A7E3B0E0E7E3F0E08081482F8A816D
:100BE000282F30E081E090E0022E02C0880F991F8C
:100BF0000A94E2F7809584238C939CC0A4E3B0E030
:100C0000E4E3F0E08081482F8A81282F30E081E002
:100C100090E0022E02C0880F991F0A94E2F7809597
:100C200084238C9387C0A1E3B0E0E1E3F0E080810E
:100C3000482F8A81282F30E081E090E0022E02C008
:100C4000880F991F0A94E2F7809584238C9372C0D1
:100C50008B818F3F09F06EC08981282F30E03D8362
:100C60002C838C819D818130910549F12C813D81BE
:100C7000223031052CF48C819D81009761F05AC09F
:100C80002C813D812230310571F18C819D81833031
:100C90009105E9F14FC0AAE3B0E0EAE3F0E080811A
:100CA000482F8A81282F30E081E090E0022E02C098
:100CB000880F991F0A94E2F7842B8C933BC0A7E31B
:100CC000B0E0E7E3F0E08081482F8A81282F30E010
:100CD00081E090E0022E02C0880F991F0A94E2F78B
:100CE000842B8C9327C0A4E3B0E0E4E3F0E08081A0
:100CF000482F8A81282F30E081E090E0022E02C048
:100D0000880F991F0A94E2F7842B8C9313C0A1E3F8
:100D1000B0E0E1E3F0E08081482F8A81282F30E0C5
:100D200081E090E0022E02C0880F991F0A94E2F73A
:100D3000842B8C9327960FB6F894DEBF0FBECDBFE1
:100D4000CF91DF910895DF93CF93CDB7DEB727978B
:100D50000FB6F894DEBF0FBECDBF89836A834B8385
:100D60008981843008F0EEC08A81883008F0EAC0BA
:100D70008B818F3F09F06FC08981282F30E03F833E
:100D80002E838E819F818130910549F12E813F8193
:100D9000223031052CF48E819F81009761F0D2C002
:100DA0002E813F812230310571F18E819F81833008
:100DB0009105E9F1C7C0ABE3B0E0EBE3F0E080817F
:100DC000482F8A81282F30E081E090E0022E02C077
:100DD000880F991F0A94E2F7842B8C93B3C0A8E381
:100DE000B0E0E8E3F0E08081482F8A81282F30E0EE
:100DF00081E090E0022E02C0880F991F0A94E2F76A
:100E0000842B8C939FC0A5E3B0E0E5E3F0E0808104
:100E1000482F8A81282F30E081E090E0022E02C026
:100E2000880F991F0A94E2F7842B8C938BC0A2E35E
:100E3000B0E0E2E3F0E08081482F8A81282F30E0A3
:100E400081E090E0022E02C0880F991F0A94E2F719
:100E5000842B8C9377C08B81882309F073C08981A0
:100E6000282F30E03D832C838C819D81813091053A
:100E700059F12C813D81223031052CF48C819D81EA
:100E8000009769F05FC02C813D812230310589F1E6
:100E90008C819D818330910509F440C053C0ABE340
:100EA000B0E0EBE3F0E08081482F8A81282F30E02A
:100EB00081E090E0022E02C0880F991F0A94E2F7A9
:100EC000809584238C933EC0A8E3B0E0E8E3F0E093
:100ED0008081482F8A81282F30E081E090E0022E27
:100EE00002C0880F991F0A94E2F7809584238C939F
:100EF00029C0A5E3B0E0E5E3F0E08081482F8A81D6
:100F0000282F30E081E090E0022E02C0880F991F68
:100F10000A94E2F7809584238C9314C0A2E3B0E096
:100F2000E2E3F0E08081482F8A81282F30E081E0E1
:100F300090E0022E02C0880F991F0A94E2F7809574
:100F400084238C9327960FB6F894DEBF0FBECDBFD7
:100F5000CF91DF910895DF93CF9300D000D00F920F
:100F6000CDB7DEB78A836B838FEF89838A81843024
:100F700008F06CC08B81883008F068C08A81282F07
:100F800030E03D832C834C815D814130510541F13E
:100F90008C819D818230910534F42C813D81211515
:100FA000310561F055C04C815D814230510551F1F0
:100FB0008C819D8183309105B9F14AC0E9E3F0E06D
:100FC0008081282F30E08B81882F90E0A90102C01A
:100FD000559547958A95E2F7CA018170898338C093
:100FE000E6E3F0E08081282F30E08B81882F90E0CD
:100FF000A90102C0559547958A95E2F7CA0181700B
:10100000898326C0E3E3F0E08081282F30E08B81E4
:10101000882F90E0A90102C0559547958A95E2F77F
:10102000CA018170898314C0E0E3F0E08081282F39
:1010300030E08B81882F90E0A90102C0559547953B
:101040008A95E2F7CA018170898302C08FEF898394
:1010500089810F900F900F900F900F90CF91DF919B
:101060000895DF93CF9300D000D0CDB7DEB789834A
:101070006A838981843008F072C08A81883008F0E0
:101080006EC08981282F30E03C832B838B819C812B
:101090008130910549F12B813C81223031052CF4BE
:1010A0008B819C81009761F05AC02B813C8122305A
:1010B000310571F18B819C8183309105E9F14FC03D
:1010C000ABE3B0E0EBE3F0E08081482F8A81282F8A
:1010D00030E081E090E0022E02C0880F991F0A9450
:1010E000E2F784278C933BC0A8E3B0E0E8E3F0E0AC
:1010F0008081482F8A81282F30E081E090E0022E05
:1011000002C0880F991F0A94E2F784278C9327C0A6
:10111000A5E3B0E0E5E3F0E08081482F8A81282F45
:1011200030E081E090E0022E02C0880F991F0A94FF
:10113000E2F784278C9313C0A2E3B0E0E2E3F0E08F
:101140008081482F8A81282F30E081E090E0022EB4
:1011500002C0880F991F0A94E2F784278C930F909E
:101160000F900F900F90CF91DF910895DF93CF9361
:1011700000D000D0CDB7DEB789836A8389818430FF
:1011800008F072C08A81883008F06EC08981282FEB
:1011900030E03C832B838B819C818130910549F128
:1011A0002B813C81223031052CF48B819C8100976E
:1011B00061F05AC02B813C812230310571F18B8165
:1011C0009C8183309105E9F14FC0ABE3B0E0EBE3E4
:1011D000F0E08081482F8A81282F30E081E090E084
:1011E000022E02C0880F991F0A94E2F7842B8C9379
:1011F0003BC0A8E3B0E0E8E3F0E08081482F8A81BB
:10120000282F30E081E090E0022E02C0880F991F65
:101210000A94E2F7842B8C9327C0A5E3B0E0E5E3C2
:10122000F0E08081482F8A81282F30E081E090E033
:10123000022E02C0880F991F0A94E2F7842B8C9328
:1012400013C0A2E3B0E0E2E3F0E08081482F8A819E
:10125000282F30E081E090E0022E02C0880F991F15
:101260000A94E2F7842B8C930F900F900F900F90BD
:10127000CF91DF910895DF93CF9300D000D0CDB709
:10128000DEB789836A838981282F30E03C832B83F2
:101290008B819C8181309105D1F02B813C81223062
:1012A00031052CF48B819C81009761F01EC02B814D
:1012B0003C812230310581F08B819C818330910506
:1012C00081F013C0EBE3F0E08A8180830EC0E8E395
:1012D000F0E08A81808309C0E5E3F0E08A818083C1
:1012E00004C0E2E3F0E08A8180830F900F900F90BA
:1012F0000F90CF91DF910895DF93CF9300D000D06E
:10130000CDB7DEB789836A838981282F30E03C839B
:101310002B838B819C8181309105D1F02B813C8185
:10132000223031052CF48B819C81009761F01EC026
:101330002B813C812230310581F08B819C8183306F
:10134000910581F013C0EAE3F0E08A8180830EC04A
:10135000E7E3F0E08A81808309C0E4E3F0E08A817A
:10136000808304C0E1E3F0E08A8180830F900F90D6
:101370000F900F90CF91DF910895DF93CF93CDB76A
:10138000DEB70E94750ACF91DF910895DF93CF9366
:1013900000D000D000D0CDB7DEB78A837C836B83CA
:1013A0004D838A81882341F48B819C81892F9927E1
:1013B000880F806A89830AC08A81813039F48B81E1
:1013C0009C81892F9927880F8B6A89830E94A00AA4
:1013D00088E00E94FC0A8130E9F489810E94BB0AFE
:1013E00088E10E94FC0A8130A9F48B810E94D20A14
:1013F00088E20E94FC0A813069F48D810E94D20A41
:1014000088E20E94FC0A813029F40E94B00A81E03F
:101410008E8301C01E828E8126960FB6F894DEBFA1
:101420000FBECDBFCF91DF910895DF93CF93CDB79E
:10143000DEB727970FB6F894DEBF0FBECDBF8A8305
:101440007C836B835E834D838A81882341F48B8107
:101450009C81892F9927880F806A89830AC08A8195
:10146000813039F48B819C81892F9927880F8B6A71
:1014700089830E94A00A88E00E94FC0A813051F50D
:1014800089810E94BB0A88E10E94FC0A813011F523
:101490008B810E94D20A88E20E94FC0A8130D1F43A
:1014A0000E94A00A80E10E94FC0A813099F489819F
:1014B00081600E94BB0A80E40E94FC0A813051F4E2
:1014C0000E94E90AED81FE8180830E94B00A81E0DA
:1014D0008F8301C01F828F8127960FB6F894DEBFDD
:1014E0000FBECDBFCF91DF910895DF93CF93CDB7DE
:1014F000DEB7A6E5B0E0E6E5F0E0808184608C939D
:10150000A6E5B0E0E6E5F0E0808180648C93E0E25F
:10151000F0E082E08083A1E2B0E0E1E2F0E08081EF
:101520008D7F8C93A1E2B0E0E1E2F0E080818E7FDC
:101530008C93E2E2F0E082E08083CF91DF91089526
:10154000DF93CF93CDB7DEB7E6E5F0E084EA8083A2
:10155000E6E5F0E080818823DCF7CF91DF91089504
:10156000DF93CF93CDB7DEB7E6E5F0E084E9808383
:10157000CF91DF910895DF93CF930F92CDB7DEB770
:101580008983E3E2F0E089818083E6E5F0E084E8A6
:101590008083E6E5F0E080818823DCF70F90CF912F
:1015A000DF910895DF93CF930F92CDB7DEB7898394
:1015B000E3E2F0E089818083E6E5F0E084E880837F
:1015C000E6E5F0E080818823DCF70F90CF91DF9192
:1015D0000895DF93CF93CDB7DEB7E6E5F0E084E87A
:1015E0008083E6E5F0E080818823DCF7E3E2F0E049
:1015F0008081CF91DF910895DF93CF9300D0CDB755
:10160000DEB789838981282F30E0E1E2F0E0808134
:10161000882F90E0887F90702817390719F481E0AF
:101620008A8301C01A828A810F900F90CF91DF9137
:101630000895DF93CF93CDB7DEB72F970FB6F89409
:10164000DEBF0FBECDBF8F8780E060E040E00E942C
:10165000A30680E061E040E00E94A30680E062E033
:101660004FEF0E94A30683E06F850E943B0980E054
:1016700090E0A0E0B0E48B879C87AD87BE876B8548
:101680007C858D859E8520E030E04AEF54E40E9401
:101690001702DC01CB018F839887A987BA876F81F6
:1016A000788589859A8520E030E040E85FE30E94F4
:1016B000710388232CF481E090E09E838D833FC0EA
:1016C0006F81788589859A8520E03FEF4FE757E461
:1016D0000E94110318164CF56B857C858D859E85BF
:1016E00020E030E040E251E40E941702DC01CB012F
:1016F000BC01CD010E944100DC01CB019E838D83A2
:101700000FC088EC90E09C838B838B819C81019738
:10171000F1F79C838B838D819E8101979E838D83BE
:101720008D819E81009769F714C06F8178858985C6
:101730009A850E944100DC01CB019E838D838D81BF
:101740009E819A83898389819A810197F1F79A838F
:10175000898380E062E040E00E94A3062F960FB6E6
:10176000F894DEBF0FBECDBFCF91DF910895DF9318
:10177000CF93CDB7DEB7AA970FB6F894DEBF0FBEF2
:10178000CDBF80E060E04FEF0E949B0580E061E00C
:101790004FEF0E949B0580E062E04FEF0E949B05A7
:1017A00083E06FEF0E947C0988E30E94190B80E0C0
:1017B00090E0A0E8BFE38FA398A7A9A7BAA76FA15D
:1017C00078A589A59AA520E030E04AEF54E40E946C
:1017D0001702DC01CB018BA39CA3ADA3BEA36BA11D
:1017E0007CA18DA19EA120E030E040E85FE30E9453
:1017F000710388232CF481E090E09AA389A33FC071
:101800006BA17CA18DA19EA120E03FEF4FE757E4A3
:101810000E94110318164CF56FA178A589A59AA509
:1018200020E030E040E251E40E941702DC01CB01ED
:10183000BC01CD010E944100DC01CB019AA389A328
:101840000FC088EC90E098A38F8F8F8D98A101979F
:10185000F1F798A38F8F89A19AA101979AA389A3E1
:1018600089A19AA1009769F714C06BA17CA18DA1F1
:101870009EA10E944100DC01CB019AA389A389A10A
:101880009AA19E8F8D8F8D8D9E8D0197F1F79E8FE2
:101890008D8F8FE00E94190B80E090E0A0E8BFE3FD
:1018A000898F9A8FAB8FBC8F698D7A8D8B8D9C8D34
:1018B00020E030E04AEF54E40E941702DC01CB0143
:1018C0008D8B9E8BAF8BB88F6D897E898F89988D1C
:1018D00020E030E040E85FE30E94710388232CF4AD
:1018E00081E090E09C8B8B8B3FC06D897E898F89D6
:1018F000988D20E03FEF4FE757E40E941103181640
:101900004CF5698D7A8D8B8D9C8D20E030E040E226
:1019100051E40E941702DC01CB01BC01CD010E9401
:101920004100DC01CB019C8B8B8B0FC088EC90E0DD
:101930009A8B898B89899A890197F1F79A8B898B80
:101940008B899C8901979C8B8B8B8B899C890097B9
:1019500069F714C06D897E898F89988D0E94410036
:10196000DC01CB019C8B8B8B8B899C89988B8F871F
:101970008F8598890197F1F7988B8F8781E00E9476
:10198000190B80E090E0A0E8BFE38B879C87AD87D0
:10199000BE876B857C858D859E8520E030E04AEF93
:1019A00054E40E941702DC01CB018F839887A9873A
:1019B000BA876F81788589859A8520E030E040E894
:1019C0005FE30E94710388232CF481E090E09E8302
:1019D0008D833FC06F81788589859A8520E03FEFB0
:1019E0004FE757E40E94110318164CF56B857C8570
:1019F0008D859E8520E030E040E251E40E94170290
:101A0000DC01CB01BC01CD010E944100DC01CB0116
:101A10009E838D830FC088EC90E09C838B838B81A9
:101A20009C810197F1F79C838B838D819E81019727
:101A30009E838D838D819E81009769F714C06F818D
:101A4000788589859A850E944100DC01CB019E83BF
:101A50008D838D819E819A83898389819A81019763
:101A6000F1F79A838983AA960FB6F894DEBF0FBE6A
:101A7000CDBFCF91DF910895DF93CF93CDB7DEB780
:101A80002F970FB6F894DEBF0FBECDBF8F8780E0D3
:101A900060E04FEF0E94A30680E061E040E00E941A
:101AA000A30680E062E04FEF0E94A30683E06F850B
:101AB0000E943B0980E062E040E00E94A30680E0D3
:101AC00090E0A0E8BFE38B879C87AD87BE876B85DE
:101AD0007C858D859E8520E030E04AEF54E40E94AD
:101AE0001702DC01CB018F839887A987BA876F81A2
:101AF000788589859A8520E030E040E85FE30E94A0
:101B0000710388232CF481E090E09E838D833FC095
:101B10006F81788589859A8520E03FEF4FE757E40C
:101B20000E94110318164CF56B857C858D859E856A
:101B300020E030E040E251E40E941702DC01CB01DA
:101B4000BC01CD010E944100DC01CB019E838D834D
:101B50000FC088EC90E09C838B838B819C810197E4
:101B6000F1F79C838B838D819E8101979E838D836A
:101B70008D819E81009769F714C06F817885898572
:101B80009A850E944100DC01CB019E838D838D816B
:101B90009E819A83898389819A810197F1F79A833B
:101BA000898380E062E04FEF0E94A3062F960FB674
:101BB000F894DEBF0FBECDBFCF91DF910895DF93C4
:101BC000CF9300D00F92CDB7DEB79B838A83198263
:101BD00015C08981282F30E08A819B81FC01E20FAA
:101BE000F31F80810E943C0D89818F5F89838981E9
:101BF000803121F481E060E00E940F0E8981282F5E
:101C000030E08A819B81FC01E20FF31F80818823F1
:101C100001F70F900F900F90CF91DF910895DF9310
:101C2000CF9300D00F92CDB7DEB78A836B838B81C1
:101C300089838A81813019F48981806489838981CB
:101C40008068898389810E94190B0F900F900F90F3
:101C5000CF91DF910895DF93CF9300D000D0CDB71F
:101C6000DEB79C838B8381E090E09A8389830EC0EA
:101C700089819A819C01220F331FC901880F991F06
:101C8000880F991F820F931F9A8389838B819C8170
:101C900029813A81B9010E94F317CB01009741F7DE
:101CA0001EC089819A812AE030E0B9010E94F317B1
:101CB000CB019A8389838B819C8129813A81B901E7
:101CC0000E94F317CB01805D0E943C0D8B819C81AB
:101CD00029813A81B9010E94F3179C838B83898102
:101CE0009A8181309105E9F60F900F900F900F9037
:101CF000CF91DF9108950F931F93DF93CF93CDB7CB
:101D0000DEB7C55CD0400FB6F894DEBF0FBECDBFC6
:101D1000FE01EB53FF4F10820E94BD090E94B70BDA
:101D200080E690E00E94DF0DFE01EF53FF4F80E060
:101D300090E0AAEFB3E480839183A283B3838E0102
:101D400003541F4FFE01EF53FF4F60817181828169
:101D5000938120E030E04AEF54E40E941702DC0156
:101D6000CB01F80180839183A283B383FE01E35406
:101D7000FF4F608171818281938120E030E040E8F3
:101D80005FE30E947103882344F4FE01E554FF4F92
:101D900081E090E09183808364C0FE01E354FF4FB3
:101DA000608171818281938120E03FEF4FE757E4AA
:101DB0000E94110318160CF043C0FE01EF53FF4FB1
:101DC000608171818281938120E030E040E251E4C2
:101DD0000E941702DC01CB018E0105541F4FBC018C
:101DE000CD010E944100DC01CB01F8019183808389
:101DF0001FC0FE01E754FF4F88EC90E09183808381
:101E0000FE01E754FF4F808191810197F1F7FE01B8
:101E1000E754FF4F91838083DE01A554BF4FFE013D
:101E2000E554FF4F80819181019711969C938E9389
:101E3000FE01E554FF4F808191810097D1F627C0C4
:101E40008E0105541F4FFE01E354FF4F60817181E5
:101E5000828193810E944100DC01CB01F8019183D2
:101E60008083DE01A954BF4FFE01E554FF4F8081FE
:101E700091818D939C93FE01E954FF4F8081918164
:101E80000197F1F7FE01E954FF4F9183808380ECC5
:101E90000E94190B9E012B533F4F80E060E070E0E1
:101EA000A9010E94150AFE01EB53FF4F80810E9499
:101EB0003C0DFE01ED54FF4F80E090E0A0E2B1E464
:101EC00080839183A283B3838E0101551F4FFE014E
:101ED000ED54FF4F608171818281938120E030E079
:101EE0004AEF54E40E941702DC01CB01F801808321
:101EF0009183A283B383FE01E155FF4F608171811D
:101F00008281938120E030E040E85FE30E9471032A
:101F1000882344F4FE01E355FF4F81E090E0918374
:101F2000808364C0FE01E155FF4F60817181828131
:101F3000938120E03FEF4FE757E40E94110318160A
:101F40000CF043C0FE01ED54FF4F6081718182812E
:101F5000938120E030E040E251E40E941702DC016E
:101F6000CB018E0103551F4FBC01CD010E944100E2
:101F7000DC01CB01F801918380831FC0FE01E55590
:101F8000FF4F88EC90E091838083FE01E555FF4F81
:101F9000808191810197F1F7FE01E555FF4F918313
:101FA0008083DE01A355BF4FFE01E355FF4F8081C3
:101FB0009181019711969C938E93FE01E355FF4FFB
:101FC000808191810097D1F627C08E0103551F4F64
:101FD000FE01E155FF4F60817181828193810E94F2
:101FE0004100DC01CB01F80191838083DE01A7551C
:101FF000BF4FFE01E355FF4F808191818D939C93EC
:10200000FE01E755FF4F808191810197F1F7FE01B5
:10201000E755FF4F918380839E012B533F4F80E014
:1020200061E070E0A9010E94150AFE01EB53FF4F29
:1020300080810E943C0DFE01EB55FF4F80E090E057
:10204000A0E2B1E480839183A283B3838E010F5514
:102050001F4FFE01EB55FF4F60817181828193819B
:1020600020E030E04AEF54E40E941702DC01CB018B
:10207000F80180839183A283B383FE01EF55FF4F64
:10208000608171818281938120E030E040E85FE3EC
:102090000E947103882344F4FE01E156FF4F81E062
:1020A00090E09183808364C0FE01EF55FF4F608113
:1020B00071818281938120E03FEF4FE757E40E94D6
:1020C000110318160CF043C0FE01EB55FF4F608161
:1020D00071818281938120E030E040E251E40E94EE
:1020E0001702DC01CB018E0101561F4FBC01CD014F
:1020F0000E944100DC01CB01F801918380831FC065
:10210000FE01E356FF4F88EC90E091838083FE014F
:10211000E356FF4F808191810197F1F7FE01E3566D
:10212000FF4F91838083DE01A156BF4FFE01E15630
:10213000FF4F80819181019711969C938E93FE01B0
:10214000E156FF4F808191810097D1F627C08E0123
:1021500001561F4FFE01EF55FF4F60817181828153
:1021600093810E944100DC01CB01F80191838083BF
:10217000DE01A556BF4FFE01E156FF4F80819181E0
:102180008D939C93FE01E556FF4F808191810197CD
:10219000F1F7FE01E556FF4F918380839E012B539B
:1021A0003F4F80E062E070E0A9010E94150AFE0145
:1021B000EB53FF4F80810E943C0DFE01E956FF4F1B
:1021C00080E090E0A0E2B1E480839183A283B383B6
:1021D0008E010D561F4FFE01E956FF4F6081718140
:1021E0008281938120E030E04AEF54E40E9417029C
:1021F000DC01CB01F80180839183A283B383FE01CC
:10220000ED56FF4F608171818281938120E030E043
:1022100040E85FE30E947103882344F4FE01EF5617
:10222000FF4F81E090E09183808364C0FE01ED5612
:10223000FF4F608171818281938120E03FEF4FE702
:1022400057E40E94110318160CF043C0FE01E95632
:10225000FF4F608171818281938120E030E040E214
:1022600051E40E941702DC01CB018E010F561F4F73
:10227000BC01CD010E944100DC01CB01F80191833A
:1022800080831FC0FE01E157FF4F88EC90E09183EF
:102290008083FE01E157FF4F808191810197F1F723
:1022A000FE01E157FF4F91838083DE01AF56BF4FA0
:1022B000FE01EF56FF4F80819181019711969C930B
:1022C0008E93FE01EF56FF4F808191810097D1F6EA
:1022D00027C08E010F561F4FFE01ED56FF4F608144
:1022E0007181828193810E944100DC01CB01F80160
:1022F00091838083DE01A357BF4FFE01EF56FF4F4E
:10230000808191818D939C93FE01E357FF4F8081E3
:1023100091810197F1F7FE01E357FF4F918380838D
:102320009E012B533F4F80E063E070E0A9010E94C3
:10233000150AFE01EB53FF4F80810E943C0DFE0108
:10234000E757FF4F80E090E0A0E2B1E48083918303
:10235000A283B3838E010B571F4FFE01E757FF4F38
:10236000608171818281938120E030E04AEF54E402
:102370000E941702DC01CB01F80180839183A283C4
:10238000B383FE01EB57FF4F60817181828193819E
:1023900020E030E040E85FE30E947103882344F4CA
:1023A000FE01ED57FF4F81E090E09183808364C090
:1023B000FE01EB57FF4F608171818281938120E0A4
:1023C0003FEF4FE757E40E94110318160CF043C08B
:1023D000FE01E757FF4F608171818281938120E088
:1023E00030E040E251E40E941702DC01CB018E0193
:1023F0000D571F4FBC01CD010E944100DC01CB01F4
:10240000F801918380831FC0FE01EF57FF4F88ECD6
:1024100090E091838083FE01EF57FF4F808191818F
:102420000197F1F7FE01EF57FF4F91838083DE01A3
:10243000AD57BF4FFE01ED57FF4F8081918101974E
:1024400011969C938E93FE01ED57FF4F80819181F1
:102450000097D1F627C08E010D571F4FFE01EB5795
:10246000FF4F60817181828193810E944100DC0174
:10247000CB01F80191838083DE01A158BF4FFE019B
:10248000ED57FF4F808191818D939C93FE01E15820
:10249000FF4F808191810197F1F7FE01E158FF4FD5
:1024A000918380839E012B533F4F80E064E070E076
:1024B000A9010E94150AFE01EB53FF4F80810E9483
:1024C0003C0DFE01E558FF4F80E090E0A0E2B1E452
:1024D00080839183A283B3838E0109581F4FFE012D
:1024E000E558FF4F608171818281938120E030E067
:1024F0004AEF54E40E941702DC01CB01F80180830B
:102500009183A283B383FE01E958FF4F60817181FB
:102510008281938120E030E040E85FE30E94710314
:10252000882344F4FE01EB58FF4F81E090E0918353
:10253000808364C0FE01E958FF4F60817181828110
:10254000938120E03FEF4FE757E40E9411031816F4
:102550000CF043C0FE01E558FF4F6081718182811C
:10256000938120E030E040E251E40E941702DC0158
:10257000CB018E010B581F4FBC01CD010E944100C1
:10258000DC01CB01F801918380831FC0FE01ED586F
:10259000FF4F88EC90E091838083FE01ED58FF4F60
:1025A000808191810197F1F7FE01ED58FF4F9183F2
:1025B0008083DE01AB58BF4FFE01EB58FF4F808197
:1025C0009181019711969C938E93FE01EB58FF4FDA
:1025D000808191810097D1F627C08E010B581F4F43
:1025E000FE01E958FF4F60817181828193810E94D1
:1025F0004100DC01CB01F80191838083DE01AF58FB
:10260000BF4FFE01EB58FF4F808191818D939C93CA
:10261000FE01EF58FF4F808191810197F1F7FE0194
:10262000EF58FF4F918380839E012B533F4F80E0F3
:1026300065E070E0A9010E94150AFE01EB53FF4F0F
:1026400080810E943C0DFE01E359FF4F80E090E045
:10265000A0E2B1E480839183A283B3838E01075902
:102660001F4FFE01E359FF4F608171818281938189
:1026700020E030E04AEF54E40E941702DC01CB0175
:10268000F80180839183A283B383FE01E759FF4F52
:10269000608171818281938120E030E040E85FE3D6
:1026A0000E947103882344F4FE01E959FF4F81E041
:1026B00090E09183808364C0FE01E759FF4F608101
:1026C00071818281938120E03FEF4FE757E40E94C0
:1026D000110318160CF043C0FE01E359FF4F60814F
:1026E00071818281938120E030E040E251E40E94D8
:1026F0001702DC01CB018E0109591F4FBC01CD012E
:102700000E944100DC01CB01F801918380831FC04E
:10271000FE01EB59FF4F88EC90E091838083FE012E
:10272000EB59FF4F808191810197F1F7FE01EB5941
:10273000FF4F91838083DE01A959BF4FFE01E95904
:10274000FF4F80819181019711969C938E93FE019A
:10275000E959FF4F808191810097D1F627C08E0102
:1027600009591F4FFE01E759FF4F60817181828136
:1027700093810E944100DC01CB01F80191838083A9
:10278000DE01AD59BF4FFE01E959FF4F80819181B4
:102790008D939C93FE01ED59FF4F808191810197AC
:1027A000F1F7FE01ED59FF4F918380839E012B537A
:1027B0003F4F80E066E070E0A9010E94150AFE012B
:1027C000EB53FF4F80810E943C0DFE01E15AFF4F09
:1027D00080E090E0A0E2B1E480839183A283B383A0
:1027E0008E01055A1F4FFE01E15AFF4F6081718132
:1027F0008281938120E030E04AEF54E40E94170286
:10280000DC01CB01F80180839183A283B383FE01B5
:10281000E55AFF4F608171818281938120E030E031
:1028200040E85FE30E947103882344F4FE01E75A05
:10283000FF4F81E090E09183808364C0FE01E55A00
:10284000FF4F608171818281938120E03FEF4FE7EC
:1028500057E40E94110318160CF043C0FE01E15A20
:10286000FF4F608171818281938120E030E040E2FE
:1028700051E40E941702DC01CB018E01075A1F4F61
:10288000BC01CD010E944100DC01CB01F801918324
:1028900080831FC0FE01E95AFF4F88EC90E09183CE
:1028A0008083FE01E95AFF4F808191810197F1F702
:1028B000FE01E95AFF4F91838083DE01A75ABF4F83
:1028C000FE01E75AFF4F80819181019711969C93F9
:1028D0008E93FE01E75AFF4F808191810097D1F6D8
:1028E00027C08E01075A1F4FFE01E55AFF4F608136
:1028F0007181828193810E944100DC01CB01F8014A
:1029000091838083DE01AB5ABF4FFE01E75AFF4F30
:10291000808191818D939C93FE01EB5AFF4F8081C2
:1029200091810197F1F7FE01EB5AFF4F918380836C
:102930009E012B533F4F80E067E070E0A9010E94A9
:10294000150AFE01EB53FF4F80810E943C0DFE01F2
:10295000EF5AFF4F80E090E0A0E2B1E480839183E2
:10296000A283B3838E01035B1F4FFE01EF5AFF4F1B
:10297000608171818281938120E030E04AEF54E4EC
:102980000E941702DC01CB01F80180839183A283AE
:10299000B383FE01E35BFF4F60817181828193818C
:1029A00020E030E040E85FE30E947103882344F4B4
:1029B000FE01E55BFF4F81E090E09183808364C07E
:1029C000FE01E35BFF4F608171818281938120E092
:1029D0003FEF4FE757E40E94110318160CF043C075
:1029E000FE01EF5AFF4F608171818281938120E067
:1029F00030E040E251E40E941702DC01CB018E017D
:102A0000055B1F4FBC01CD010E944100DC01CB01E1
:102A1000F801918380831FC0FE01E75BFF4F88ECC4
:102A200090E091838083FE01E75BFF4F808191817D
:102A30000197F1F7FE01E75BFF4F91838083DE0191
:102A4000A55BBF4FFE01E55BFF4F80819181019740
:102A500011969C938E93FE01E55BFF4F80819181DF
:102A60000097D1F627C08E01055B1F4FFE01E35B87
:102A7000FF4F60817181828193810E944100DC015E
:102A8000CB01F80191838083DE01A95BBF4FFE017A
:102A9000E55BFF4F808191818D939C93FE01E95B03
:102AA000FF4F808191810197F1F7FE01E95BFF4FB4
:102AB000918380839E012B533F4F80E068E070E05C
:102AC000A9010E94150AFE01EB53FF4F80810E946D
:102AD0003C0DFE01ED5BFF4F80E090E0A0E2B1E431
:102AE00080839183A283B3838E01015C1F4FFE011B
:102AF000ED5BFF4F608171818281938120E030E046
:102B00004AEF54E40E941702DC01CB01F8018083F4
:102B10009183A283B383FE01FF96608171818281DC
:102B2000938120E030E040E85FE30E947103882356
:102B30002CF481E090E09EAF8DAF46C0FE01FF9681
:102B4000608171818281938120E03FEF4FE757E4FC
:102B50000E941103181664F5FE01ED5BFF4F6081C2
:102B600071818281938120E030E040E251E40E9453
:102B70001702DC01CB01BC01CD010E944100DC0148
:102B8000CB019EAF8DAF0FC088EC90E09CAF8BAFB8
:102B90008BAD9CAD0197F1F79CAF8BAF8DAD9EAD2A
:102BA00001979EAF8DAF8DAD9EAD009769F716C0B2
:102BB000FE01FF9660817181828193810E944100B4
:102BC000DC01CB019EAF8DAF8DAD9EAD9AAF89AFCD
:102BD00089AD9AAD0197F1F79AAF89AF9E012B535A
:102BE0003F4F80E069E070E0A9010E94150AFE01F4
:102BF000EB53FF4F80810E943C0D80E090E0A0E20B
:102C0000B1E48DAB9EABAFABB8AF6DA97EA98FA978
:102C100098AD20E030E04AEF54E40E941702DC0156
:102C2000CB0189AB9AABABABBCAB69A97AA98BA939
:102C30009CA920E030E040E85FE30E947103882314
:102C40002CF481E090E098AB8FA73FC069A97AA9E6
:102C50008BA99CA920E03FEF4FE757E40E941103A6
:102C600018164CF56DA97EA98FA998AD20E030E02B
:102C700040E251E40E941702DC01CB01BC01CD010E
:102C80000E944100DC01CB0198AB8FA70FC088ECFC
:102C900090E09EA78DA78DA59EA50197F1F79EA711
:102CA0008DA78FA598A9019798AB8FA78FA598A9F5
:102CB000009769F714C069A97AA98BA99CA90E94F9
:102CC0004100DC01CB0198AB8FA78FA598A99CA7E9
:102CD0008BA78BA59CA50197F1F79CA78BA79E01BD
:102CE0002B533F4F80E06AE070E0A9010E94150A73
:102CF000FE01EB53FF4F80810E943C0D80E090E08D
:102D0000A0E2B1E48FA398A7A9A7BAA76FA178A55D
:102D100089A59AA520E030E04AEF54E40E9417020A
:102D2000DC01CB018BA39CA3ADA3BEA36BA17CA1B3
:102D30008DA19EA120E030E040E85FE30E94710396
:102D400088232CF481E090E09AA389A33FC06BA173
:102D50007CA18DA19EA120E03FEF4FE757E40E94A8
:102D6000110318164CF56FA178A589A59AA520E046
:102D700030E040E251E40E941702DC01CB01BC01CB
:102D8000CD010E944100DC01CB019AA389A30FC0B1
:102D900088EC90E098A38F8F8F8D98A10197F1F721
:102DA00098A38F8F89A19AA101979AA389A389A13A
:102DB0009AA1009769F714C06BA17CA18DA19EA177
:102DC0000E944100DC01CB019AA389A389A19AA1A9
:102DD0009E8F8D8F8D8D9E8D0197F1F79E8F8D8F9C
:102DE0009E012B533F4F80E06BE070E0A9010E94F1
:102DF000150AFE01EB53FF4F80810E943C0D80E0DD
:102E000090E0A0E2B1E4898F9A8FAB8FBC8F698D7F
:102E10007A8D8B8D9C8D20E030E04AEF54E40E9447
:102E20001702DC01CB018D8B9E8BAF8BB88F6D8928
:102E30007E898F89988D20E030E040E85FE30E9432
:102E4000710388232CF481E090E09C8B8B8B3FC036
:102E50006D897E898F89988D20E03FEF4FE757E499
:102E60000E94110318164CF5698D7A8D8B8D9C8DFF
:102E700020E030E040E251E40E941702DC01CB0187
:102E8000BC01CD010E944100DC01CB019C8B8B8BEE
:102E90000FC088EC90E09A8B898B89899A89019779
:102EA000F1F79A8B898B8B899C8901979C8B8B8BF3
:102EB0008B899C89009769F714C06D897E898F89F9
:102EC000988D0E944100DC01CB019C8B8B8B8B8900
:102ED0009C89988B8F878F8598890197F1F7988BBC
:102EE0008F879E012B533F4F80E06CE070E0A9017B
:102EF0000E94150AFE01EB53FF4F80810E943C0D9A
:102F000080E090E0A0E2B1E48B879C87AD87BE872C
:102F10006B857C858D859E8520E030E04AEF54E40A
:102F20000E941702DC01CB018F839887A987BA879B
:102F30006F81788589859A8520E030E040E85FE3FD
:102F40000E94710388232CF481E090E09E838D839E
:102F50003FC06F81788589859A8520E03FEF4FE7F4
:102F600057E40E94110318164CF56B857C858D85FE
:102F70009E8520E030E040E251E40E941702DC012F
:102F8000CB01BC01CD010E944100DC01CB019E833D
:102F90008D830FC088EC90E09C838B838B819C8118
:102FA0000197F1F79C838B838D819E8101979E838E
:102FB0008D838D819E81009769F714C06F8178851C
:102FC00089859A850E944100DC01CB019E838D8317
:102FD0008D819E819A83898389819A810197F1F7F6
:102FE0009A838983FFCFAA1BBB1B51E107C0AA1F8D
:102FF000BB1FA617B70710F0A61BB70B881F991F9A
:103000005A95A9F780959095BC01CD0108952F920E
:103010003F924F925F926F927F928F929F92AF9268
:10302000BF92CF92DF92EF92FF920F931F93CF93B5
:10303000DF93CDB7DEB7CA1BDB0B0FB6F894DEBF4C
:103040000FBECDBF09942A88398848885F846E8472
:103050007D848C849B84AA84B984C884DF80EE80BC
:10306000FD800C811B81AA81B981CE0FD11D0FB6C5
:10307000F894DEBF0FBECDBFED010895F894FFCFE9
:1030800052656164696E67204150503A200000002B
:063090000000000000003A
:00000001FF
